:020000040800F2
:1000000000500020552D0008892D0008892D00087A
:10001000892D0008892D0008892D000800000000A6
:10002000000000000000000000000000892D000812
:10003000892D000800000000892D0008892D000886
:10004000892D0008892D0008892D0008892D0008B8
:10005000892D0008892D0008892D0008892D0008A8
:10006000892D0008892D0008892D0008892D000898
:10007000892D0008892D0008892D0008892D000888
:10008000892D0008892D0008892D00089D1C000875
:10009000A11C0008892D0008991C0008892D000862
:1000A000892D0008892D0008892D0008892D000858
:1000B000892D0008892D0008892D0008892D000848
:1000C000892D0008892D0008892D0008892D000838
:1000D000892D0008892D0008892D0008892D000828
:1000E000892D0008892D0008892D000800000000D6
:1000F0000000000000000000000000000000000000
:1001000000000000000000005FF808F110B5054C89
:10011000237833B9044B13B10448AFF300800123B3
:10012000237010BD7401002000000000C873000897
:100130000C4B43B10C4810B50C49AFF300800C4890
:10014000036823B910BD0A48036833B97047094BE7
:10015000002BF7D0BDE810401847064B002BF5D018
:10016000184700BF00000000C87300087801002095
:100170007001002000000000154B002B08BF134B3E
:100180009D46A3F5803A00218B460F461348144A3A
:10019000121A05F0E0FA0F4B002B00D098470E4BD7
:1001A000002B00D098470020002104000D000D48CE
:1001B000002802D00C4802F0DAFB05F07FFA20009C
:1001C000290002F093FB02F0CFFB00BF0000080003
:1001D0000050002000000000DF280008740100200B
:1001E000A81300206F2900080000000070470000DD
:1001F000024A136801331360704700BF7004002087
:10020000024A136801331360704700BF7404002072
:100210000368184708B10B68036070477047000017
:1002200038B5B0F90030044601330D4604D13A2206
:100230000549064805F036F8636815B1E2681360B1
:1002400038BD2269FBE700BFDE6700083C68000894
:10025000F8B50B4E0B4C0A4804F034FD70B127681A
:1002600065793046EDB26B1CDBB2637104F0C4FCFF
:100270007855E379627913406371ECE7F8BD00BF0C
:10028000A401002078040020014804F052BE00BF01
:100290007406002010B5084C204604F079FE074B88
:1002A00018603A23B0FBF3F0054B18602046BDE818
:1002B000104004F05DBE00BF74060020A0080020BE
:1002C0002805002008B5044804F077FEBDE8084082
:1002D00000210248FFF7A4BF74060020CC080020CC
:1002E00010B504460C2105F059F8204610BD38B56C
:1002F000054655F8043B04469B689847284601F09C
:100300003DFC054623682046DB689847284638BDF3
:1003100038B504460D4604F0E9FF2946204602F0B0
:100320003EFABDE8384005F00BB8000038B50D4680
:1003300000F054FF80B10123084C0948217803FAEA
:1003400001F121EA0501FFF76BFF23780133DBB2EE
:100350000F2BC8BF0023237038BD00BF60020020F0
:100360009001002003460020D871587930B5451C13
:100370005D7155251C680132255458799C79D2B29B
:100380002040451C5D714E251C68255458799C7988
:100390002040451C5D7145251C68255458799C7981
:1003A0002040451C5D7152251C6825545C79987964
:1003B0001D680440601C58712A5558799C7920406A
:1003C000451C5D713A251C68255458799C7920405C
:1003D0001C68451C5D71215458799C7920405871E6
:1003E000D879424081F036005040D87130BD034684
:1003F0005A79006810B5541C5C7181545A79987907
:100400000240D8795A714840D87110BD00220D4B76
:1004100070B51A701C780A5D8AB142790568561C5D
:1004200046710C5DAC5442798479224042711A784D
:10043000541C1C708A5CC4796240C271EAE7C079BE
:1004400070BD00BF3805002010B58379C479194408
:100450002140036881715B5C114421408171184621
:1004600010BD2DE9F04F002201244FF006080525AC
:100470004FF0040C03264FF0020E90F8059003791C
:10048000994558D0877AC179062F52D8DFE807F00E
:10049000040F1C22292E3C000768FB5C552B01D160
:1004A0008472C5720379013319400171E7E7076867
:1004B000FF5C4E2F02D180F80AE0F3E7552FF1D010
:1004C000013B82720371EDE70768FF5C452FF7D1AE
:1004D0008672E7E70768FF5C522FF1D180F80AC007
:1004E000E0E70768FB5C85724372DBE70768FF5C47
:1004F0003A2FE5D101330B408371437A80F80A80AB
:1005000083F036030372CDE7477AD0F800B0013F9D
:10051000FFB2477290F808A027B11BF8033083EAB6
:100520000A03EFE787721BF803305345BAD104730F
:10053000B8E78272B6E7BDE8F08F0000F8B5026850
:1005400083790C46D15C0646A32900F020816AD845
:10055000A02900F09C800BD8102900F0858012297A
:1005600000F08D8002222046FFF7FCFEFF2177E09D
:10057000A12900F0AE80A229F4D19F4F022220468B
:100580003D68FFF7EFFE0D212046FFF730FFE179D0
:100590002046FFF72CFF994A01211378304643F09B
:1005A000400313700022FFF74FFF00F15A03DBB244
:1005B000B42B00F22081B7F90A20B7F90810B7F977
:1005C0000E6040B28B1A801B4343B7F90C00801BAE
:1005D00093FBF0F388B21344834288BF0B4691B279
:1005E0008B423B6038BF3A6039688548FFF790FE20
:1005F0004FF47A713B68B7F908209D4234BF5D1B08
:10060000ED1A7D607B68B7F90A004B43121AB3FB01
:10061000F2F38B4288BF0B46312B7B6000F2EB80FC
:1006200032237B60F8BDA72903D8A529C0F0C58077
:10063000F8BDF0290FD0F12994D10C222046FFF704
:1006400091FE70492046FFF7E1FEE1792046BDE8C2
:10065000F840FFF7CCBE02222046FFF783FE0D21B3
:100660002046FFF7C4FEF0E702222046FFF77AFE9D
:10067000654804F0ADF9C14301F00F01F0E7022233
:100680002046FFF76FFE614804F0C0F8F3E7604EC4
:10069000604D3388072220462B80FFF763FE2978C0
:1006A0002046FFF7A4FE69782046FFF7A0FE718977
:1006B00020462980C9B2FFF79AFE69782046FFF7E5
:1006C00096FEB18A20462980C9B2FFF790FE69786C
:1006D000C6E702222046FFF745FE0D212046FFF720
:1006E00086FEE1792046FFF782FE00220121304696
:1006F000FFF7AAFE474C0022207001213046FFF789
:10070000A3FE0022607001213046FFF79DFE01210B
:100710000022A0703046FFF797FEE07025683E4843
:10072000002DACBF0221012104F026F9FA21002D91
:10073000B8BF6D4269433948FFF7EAFD0022012145
:100740003046FFF781FE0022207001213046FFF77E
:100750007BFE0022607001213046FFF775FE01210B
:10076000A07000223046FFF76FFEE07024682C482E
:10077000002CACBF0221012104F0FEF8FA21002C6C
:10078000B8BF644261432748FFF7C2FDF8BD264B5E
:10079000204D1B68052220462B60FFF7E3FD2978DA
:1007A0002046FFF724FE69782046FFF720FEA9784F
:1007B0002046FFF71CFEE97852E71C4B154D1B68DD
:1007C0000922A42120462B60FFF7CCFD2978204682
:1007D000FFF70DFE69782046FFF709FEA97820464D
:1007E000FFF705FEE9782046FFF701FE104B196878
:1007F0002960C9B2D4E7F8BD140600202E050020F8
:10080000C007002047670008C805002074070020C3
:10081000A805002070070020900400202008002078
:10082000DC04002038080020A00800209C080020DC
:100830009808002070B5037B05460C4616461BB190
:1008400000230373FFF77AFE194800F0C7FC38B1A4
:10085000AB7A2BB1EB7A013BDBB2EB7203B9AB7233
:100860002A796B799A4202D02846FFF7FAFD23795C
:1008700062799A420CD066B121685A1C22711944DF
:1008800001220C4800F040FD2379A2791340237126
:1008900070BD094804F027FA0028F9D023792268AE
:1008A000591C2171D15C044804F0B5F9ECE700BF94
:1008B0003005002084060020A401002010B50E4C55
:1008C00023785B0616D500F089FC98B123780222C4
:1008D0006FF386132370094CA2212046FFF742FDD7
:1008E0000A212046FFF783FDE1792046BDE810404C
:1008F000FFF77DBD10BD00BF2E050020880400203D
:1009000010B50C4804F051FB0B4C2368C01AB0F52D
:100910007A7F0EDB074804F048FB084B084A196849
:100920002060116000221A60064B074918681A609F
:10093000086010BD640600206C02002070040020D6
:100940009C080020740400209808002010B5174867
:1009500004F02BFB164C2368C01A1D2819DD134820
:1009600004F023FB2060134C2378012B12D004D316
:10097000022B15D0FF23237004E00F48FFF7B7FCCC
:100980000E4B188023780133DBB2022BC8BF002343
:10099000237010BD0A48FFF7AAFC084B5881F1E705
:1009A0000848FFF7A4FC054B9882EBE7640600209B
:1009B000640200206802002090050020A8050020A5
:1009C000840500209C0500202A4A10B514462A4BB5
:1009D00003F1100153F8040B8B4242F8040BF9D1D8
:1009E0001B781370254B264A03F1100153F8040BB2
:1009F0008B4242F8040BF9D119889B7811809370CF
:100A000020496422204804F09BFE204B204A03F139
:100A10000C0153F8040B8B4242F8040BF9D11B78FC
:100A200013701C4B1C4A03F1380153F8040B8B4222
:100A300042F8040BF9D11B881380184B184A03F1B4
:100A40000C0153F8040B8B4242F8040BF9D11B88BC
:100A500014491380144ADD3913681448C4F8DD3092
:100A60005368C1F8E1309368C1F8E530BDE8104043
:100A700000F038BC85060020E6660008D266000853
:100A80009606002054670008A9060020C4660008E6
:100A90000D070020146700081A070020F8660008F8
:100AA0005407002062070020076700088406002022
:100AB00010B504460C4800F03FFC98B1204600F009
:100AC0008DFB78B1094C0222F0212046FFF74AFC49
:100AD0000D212046FFF78BFCE1792046BDE8104050
:100AE000FFF785BC10BD00BF84060020180B002056
:100AF000C36810B504460BB19B689847204610BDEB
:100B0000C36810B504460BB19B689847204610BDDA
:100B100038B505460446064B45F8183B04F0F6F98F
:100B20002846FFF7EDFF204604F038FB204638BD8D
:100B3000E071000810B50446FFF7EAFF20462821BF
:100B400004F02CFC204610BD10B50446024B036097
:100B5000FFF7DEFF204610BDC871000870B50646DD
:100B600004460B4B00F1B80546F8983BB54204D05B
:100B7000103D2846FFF7C4FFF8E704F13800FFF7FF
:100B8000B7FF04F12800FFF7B3FF204670BD00BF98
:100B9000B071000810B50446FFF7E0FF2046BC2105
:100BA00004F0FCFB204610BD10B50446024B036068
:100BB000FFF7D4FF204610BD9871000838B5CB6808
:100BC00004460D460BB15B689847EB682046E3602E
:100BD00038BD0000834B844A2DE9F04700241A6099
:100BE000FF221C7181495C719C72DA71804B814DCE
:100BF00019601C715C719A717F49804B8EB01960CD
:100C00001C715C71DA719C727D497E4B7E48196063
:100C10009A711C715C717D4B5A221C704FF4FA63FF
:100C2000AA812B814FF6A6724FF47A734FF4E1310B
:100C30006B81EA816B6004F031F804F057FB1921F5
:100C4000734801F0A7FD04F07BFB04F04FFB192172
:100C5000704801F09FFD04F073FB04F047FB142182
:100C60006D4801F097FD04F06BFB21466B48FFF7E0
:100C7000D7FA6B4E6B4B22460AA963480A930D962E
:100C800004F0B6F80AA8FFF73BFF674B0AA96748CC
:100C90000A930D9603F030FF0AA8FFF731FF644B6B
:100CA0000AA964480A930D9603F026FF0AA8FFF7E5
:100CB00027FF614B0AA961480A930D9603F01CFFB8
:100CC0000AA8FFF71DFF5E4B0AA95C480A930D9620
:100CD00003F03CFF0AA8FFF713FF40F2DC514E4837
:100CE0002960FFF715FB21464948FFF711FB214614
:100CF0004848FFF70DFB6421684600F06BFA1421A9
:100D000002A800F067FA0A214E4800F063FA4FF497
:100D1000967104A800F05EFAA98806A800F05AFAB5
:100D200043F6982108A800F055FA0421464800F03F
:100D3000F3FD464800F08CFDFFF746FE444804F002
:100D4000F8F8DFF80881424F424DDFF8A4A0DFF841
:100D50009490404600F0AEFC0A216846FFF7E6FAA0
:100D6000002251464846FFF765FD012225492348E8
:100D7000FFF760FD384803F049FD3349C2B202A8CD
:100D800000F0F2FDFFF7BCFDFFF7E0FD334906A8D8
:100D9000FFF794FD08A8FFF78BFE384604F005F92D
:100DA000001B2728D5DD384604F0FFF82C4A012126
:100DB00013880446013319481380FFF731FA294B91
:100DC00028460A930D96FFF79BFE0AA92846FFF7CF
:100DD000F5FE0A21244804F085F80AA8FFF790FEE2
:100DE000B3E700BF780400207002002070030020E9
:100DF000880400201406002008090020080B0020A9
:100E0000080A0020180B0020A40100202E05002055
:100E10002008002038080020C0070020CC0800204F
:100E2000B866000851020008F1010008D807002048
:100E30000102000850080020890200083C0500203B
:100E400095020008300500202406002084060020BA
:100E500064060020F808002074070020180600200F
:100E60002C050020C5020008E0080020034653F8C6
:100E7000042B10B5044602B9036022689A4204D0DC
:100E800059220349034804F00DFA206810BD00BF41
:100E900082670008CA67000808B50248FFF7E6FF46
:100EA00008BD00BFC812002008B50248FFF7DEFFEA
:100EB00008BD00BFC8120020F8B504460F4605461D
:100EC000074B084E44F8043B3046FFF7CFFF394646
:100ED000204600F0F7FD3046FFF7C8FF2846F8BD72
:100EE000A8660008C812002010B50446FFF75CFE93
:100EF0002046BC2104F052FA204610BD10B504462D
:100F0000FFF722FE2046282104F048FA204610BDB3
:100F10002DE9F0474FF014088C4C8EB0424600216A
:100F2000204604F018FC4FF01F0920464FF0FF3414
:100F3000874F884D884E2D2104F0A1F80C940B9416
:100F40000A940994089407940694059404940394CD
:100F5000029401941E23CDF80090172216213846E2
:100F600003F0A0FC2A463146384601F0FBFC07237B
:100F70007A4F0C940B940A9409940894079406945D
:100F8000059404940394029401940093052206238B
:100F90000421384603F0D0FB3846714F2A46714988
:100FA00001F0E0FC4FF416530A220921384603F001
:100FB00019FE38466C4F2A466C4901F0D3FC424674
:100FC0000021DFF8F481384604F0C5FB38461D21C6
:100FD000674F04F054F81C21404603F057FDDFF83A
:100FE000DCA12A463946404601F0BCFC04F07EF9FB
:100FF0000821604801F062FBDFF8C48104F0A0F929
:1010000000215046FFF758FF5046DFF8B8A12A46A6
:10101000414601F0A7FC01215046FFF74DFF504625
:10102000DFF8A4A12A46414601F09CFC022150466B
:10103000FFF742FF4146DFF894812A46504601F00F
:1010400091FC1921404603F021FD4046DFF88081E4
:101050002A46394601F086FC1821404603F016FD69
:101060003946454F2A46404601F07CFC23460C9405
:101070000B940A9409940894079406940594049494
:1010800003940294019400944A461E21384603F0CA
:1010900009FC3846394F2A46314601F063FC2346A5
:1010A0000C940B940A94099408940794069405945C
:1010B0000494039402940194009417221621384654
:1010C00003F0F0FB314600262A46384601F04AFC80
:1010D00004F00CF911212A4801F0F0FA04F030F97B
:1010E00004F004F91021274801F0E8FA264C04F036
:1010F00027F9264803F06FFF254803F06CFF2046D0
:1011000004F02CF8234B666223602046224C2A46CA
:10111000224901F027FC204604F020F8204B6662AB
:10112000236020461F4C2A461F4901F01BFC4FF448
:1011300080731E4A1E49204600F0AEF82A4620461B
:101140001C490EB0BDE8F04701F00CBC9001002036
:10115000C8050020EC0000206D480008740700203E
:10116000A401002001470008CC080020A90B0008BA
:10117000314A0008C007002090040020DC04002051
:101180002008002038080020A40800206406002061
:1011900074060020E0710008E0080020110B000830
:1011A000C871000884060020490B00080D0B0020C0
:1011B00008090020E11200083C05002090050020ED
:1011C000ED010008840500209C050020D8070020C0
:1011D00050080020002381808371704738B58479DE
:1011E00005463CB901238371084803F0DEFE286000
:1011F000204638BD054803F0D8FE00242B68C01AED
:10120000AB889842A4BFAC710124F1E764060020CA
:101210002DE9F047194E1A4F1A4D184803F052FDA8
:1012200048B33B782BB9184B93F80080B8F1000F06
:1012300008D06C783046631C6B7003F0DDFC2C44E6
:101240006071EAE7114C3046236893F80090104B28
:10125000D3F800A003F0D0FC0AF809002268137844
:101260000133137023680B4A197812689142D4D95C
:1012700083F80080D1E7BDE8F08700BF700D002043
:10128000260D0020200B0020F0000020500D002033
:10129000380D0020300D002030B50024094D0470B9
:1012A000296009490A60094A1360094BDC705C70C7
:1012B0001C719C70074B1C70074B1C70074B1C70FB
:1012C00030BD00BF380D0020500D0020300D002033
:1012D000200B0020280D0020270D0020250D0020C8
:1012E000704700000122054B1A700A22044B196056
:1012F000044B1A7000230370704700BF260D0020B6
:101300002C0D0020200B00200023F0B51D46094CB9
:10131000E778F8185E1CDBB29342C0B206DACB5C09
:10132000204480F8053101253346F2E705B1E0702D
:10133000F0BD00BF200B00200078704708B50848BA
:1013400003F0D1FC58B1074B05481A79511C1971AB
:10135000134493F80511BDE8084003F05CBC08BDD8
:10136000700D0020200B0020F0B5002630463546D9
:10137000134B5F789C78A7421DD003EB040E9EF8B8
:1013800005C011F805E0E64508D10135EDB211F8C8
:1013900005E0BEF1000F08BF0120F2E7012806D1E9
:1013A000012A04D106B19C7000F00100F0BD0134A7
:1013B000E4B20126DFE7002EF6D09F70F4E700BF0D
:1013C000200B0020F8B5B24C064623780B2B7BD8B7
:1013D000DFE813F00C0037005D00A5007A00CB00B9
:1013E000F90022017A007A007A004C01A94D2B788D
:1013F0002A460A2B14D1EB784C1E103114F8015FE9
:10140000581C0A2D1344C0B283F8055103D1D07083
:101410000823137054E08C420346EFD1D370F7E7F2
:1014200000229D49FFF7A0FF9C4B002800F0F080B0
:1014300000221A700A232B70012399490A70237025
:1014400042E0944D2B782A460A2B10D1EB7801F11B
:101450001104243114F8015B581C0A2D1344C0B246
:1014600083F80551D3D08C420346F3D1D6E700224E
:101470008949FFF779FF894B002800F0C9800022D5
:101480001A700A2386492B700A700223D7E7814D10
:101490002B782A460A2B2ED1EB7801F124048831CF
:1014A00014F8015B581C0A2D1344C0B283F805518F
:1014B0001CD1D0700823137041F28832794B1A8006
:1014C000774A137801331370754B1B78032BC2BF17
:1014D0000022754B1A70714B1A78032A40F3D7809B
:1014E00000221A700A226B4B1A70F8BDA142034603
:1014F000D6D1D070DEE700226749FFF735FF674B92
:10150000002800F0858000221A700A2364492B709D
:1015100003230A7014222370624B1A80D4E75D4DB6
:101520002B782A460A2B11D1EB7801F188049531EA
:1015300014F8015B581C0A2D1344C0B283F80551FE
:101540003FF465AF8C420346F2D167E7002252496F
:10155000FFF70AFF514B00285AD000221A700A23C5
:101560004F492B700A70052369E74A4D2B782A46AC
:101570000A2B17D1EB7801F19504CF3114F8015BF8
:10158000581C0A2D1344C0B283F8055105D1D07000
:101590000823137040F2DC5290E7A1420346EDD1DC
:1015A000D070F5E700223C49FFF7DEFE3B4B78B3F5
:1015B00000223B491A700A700F223A4B1A800A2304
:1015C0002B7006233BE7334D2B782A460A2B11D18B
:1015D000EB7801F1CF04DD3114F8015B581C0A2DC2
:1015E0001344C0B283F805513FF411AF8C42034657
:1015F000F2D113E700222849FFF7B6FE274B38B196
:1016000000221A700A2326492B700A70072316E756
:101610001A7801321A7057E71E4D2B780A2B15D114
:10162000EB7801F1DD00E93110F8014B5A1C0A2C6E
:101630002B44D2B283F8054103D1EA7008232B7002
:101640003EE781421346EFD1EA70F7E700221249E4
:10165000FFF78AFE114F024688B914493046FFF75A
:1016600083FE60B93B7801333B702DE704220E4BBB
:101670001A7000220E4B1A700123037024E7002316
:10168000074A3B7013700A232B700B23D7E6F8BD73
:10169000340D0020200B002054680008270D002086
:1016A000250D0020F2000020280D002058680008B9
:1016B000260D002038B5554D04462B78042B00F23A
:1016C000A380DFE803F0032D555B7A00504803F058
:1016D0005FFC504C2368C01AB0F5FA7FC0F09480CC
:1016E0004B4803F055FC20604B4CB4F900300133FB
:1016F00004D1482249494A4803F0D4FDA3681A6836
:1017000063681A42B4F9003060D0013304D13A2240
:101710004249434803F0C6FD236962681A6038BD38
:101720003B4803F042FC3F4B1B68C01A42F20F7368
:10173000984204D900223C4B1A7002232B70344883
:1017400003F033FC394B1B68C01AB0F5FA5F5BD36A
:10175000002237492046FFF707FE002854D0032215
:10176000344B1A700022304B1A7002232B7038BD94
:10177000314B1B78002B47D00323F7E72F4D2979F6
:10178000EA78914201D0FFF7D9FD2B78082B0DD1D3
:101790001F4803F00AFC234D2B68C01A284B1B88F6
:1017A000984231D31A4803F000FC2860254B2046AC
:1017B0001968BDE83840FFF705BE204B1A79DB7881
:1017C0009A4221D0BDE83840FFF7B8BD013304D1BB
:1017D0003A221249124803F065FDE36862680C483A
:1017E0001A600023134A137001222A70164A1370DC
:1017F000164A137003F0D9FB0A4B1860044803F033
:10180000D4FB0A4B186038BD38BD00BF280D00203E
:101810005C0D0020580D00203C0D0020DE67000804
:101820003C680008540D0020F00000206C0D0020E2
:101830005B680008340D0020260D0020200B0020DE
:10184000F20000202C0D0020270D0020250D002087
:101850001FB5144CB4F90030013304D13A221249B7
:10186000124803F01FFDE368626869461A60104B76
:10187000002200930F4B1048039303F0B9FA684617
:10188000FFF73EF90D4803F054FB0C4803F08DFBC5
:101890000B4B1860094803F07BFB0A4B186004B03F
:1018A00010BD00BF3C0D0020DE6700083C6800084A
:1018B00011120008B8660008700D00205C0D0020B1
:1018C0006C0D0020580D002010B50E4C0E4803F092
:1018D00082FB14220021204603F03DFF20460B4CE2
:1018E000032103F0CCFB1B221A2120464FF4E133E5
:1018F00003F078F92046BDE81040054A054901F09B
:1019000031B800BF3C0D00205C0D0020700D0020A0
:10191000EC000020A90B0008114BF0B51970002352
:101920004FF0010C1E464FF0020E1F460D4C237067
:101930005D1C8B42EDB20FDA1E0182190CFA03F323
:10194000137300F806C02B4682F801E082F802E02B
:10195000576097600126EBE706B12370F0BD00BF2A
:101960002C0E0020380500202DE9F0478846164649
:10197000FFF734FC00284FD0284B00229946012461
:10198000274F284D1A7099F800103B78994243DA96
:101990000A0108EB020A9AF80C3033400B4118F8A0
:1019A0000210DBB28AF80130032932D8DFE801F0F7
:1019B0001A021E0A02218AF802106BB9032308F8E2
:1019C000023009E02BBB08F8023028468AF80230C2
:1019D00003F0EBFACAF8040099F80030013389F8F3
:1019E0000030D0E7012BF7D10223E8E7012B0ED11D
:1019F00008F8023028468AF8023003F0D6FA99F83F
:101A0000002008EB02125368C01A9060E4E700233C
:101A1000D5E708F80240DFE7BDE8F0873805002089
:101A20002C0E0020640600201FB50268244B1A60AB
:101A30008279012302930393112A3DD8DFE802F053
:101A4000092A0B0D0F11131517191B1D1F21232513
:101A5000272900231EE002231CE003231AE00423AD
:101A600018E0052316E0062314E0072312E00823FC
:101A700010E009230EE00A230CE00B230AE00C23FC
:101A800008E00D2306E00E2304E00F2302E01023FC
:101A900000E0112301A90A48019301F04FFA084818
:101AA00001F040FB06480A2101F09EF920B90448E4
:101AB00001F040FA80B200E0002005B05DF804FBC0
:101AC000E812002070B5054686B008460C46244949
:101AD00003F014FB2860013004D12248224930224F
:101AE00003F0E0FB20461E4903F024FB431C06469E
:101AF00004D11E481C49342203F0D4FBC6F3C4268B
:101B0000EF2CAE7103DC2046154903F0BBFA184BED
:101B1000AC801C680CBB01261E60164B02A89A699B
:101B200042F400729A619B6903F400730193019B74
:101B3000022302934FF40043049302F0D5F82B687C
:101B40000D4880E818004FF460238460C46006618B
:101B500044618461C36101F069FB06B070BD00BFE0
:101B6000206A0008046B00081C6B0008776B0008F3
:101B7000300E002000100240E812002008B5FFF7E8
:101B800053FFC0F3032343EA001080B208BD0000F6
:101B90003A4970B54B693A4CDB0721602FD58A680A
:101BA000384B384813401D1A8A68374B684203EA9D
:101BB0000203354A68419E1A8D68344B724203EA2B
:101BC0000503324D7241C5EB030CDCF1000343EB1E
:101BD0000C0308B101258D601AB128494FF48075B6
:101BE0008D601BB125494FF480358D6008B902B96D
:101BF0002BB1274B274A1B6810680121984723689F
:101C0000DA685B69920707D09E0705D5204B214A09
:101C10001B68106800219847236899695A698D07E5
:101C20005B6909D5900507D5190405D5184B194AE4
:101C30001B6810680521984723689E695D69C6F393
:101C40008006C5F380255B6946B13DB11A0405D510
:101C50000F4B104A1B6810680721984723685B697F
:101C600056B14DB11B0407D5BDE87040084B094A79
:101C70001B6810680221184770BD00BF0064004057
:101C8000340E0020030000040003000800000310CD
:101C9000740E0020780E0020FFF77ABFFFF778BFA0
:101CA000FFF776BF10B50C4CA268A4681346B4F1D8
:101CB000006F0CD1131F094A53F8044F42F8044F28
:101CC000074CA242F8D1044A4FF000539360103001
:101CD00043F8201010BD00BF00ED00E0FCFFFF1F27
:101CE000E8000020431C10B5044604D1064807490B
:101CF000262203F0D7FA2046002100F0DDFA04F096
:101D00000F040120A04010BD41680008906B00083E
:101D100070B504464B1C0E46218010D0C1F3031051
:101D200000F080FA05463046FFF7DCFF05F10803B6
:101D3000A36005F1100314356060E360256170BD98
:101D4000B0F9000000F058BB38B5B0F900300546D6
:101D500001330C4604D108480849492203F0A2FA8D
:101D6000012CB5F9000008BF2146BDE8384018BF76
:101D7000002100F0A1BA00BF3C680008906B000889
:101D80002DE9F04107468846144E4C2404FB0064BC
:101D90000025043445451ED04C237B430121F358D4
:101DA00001FA05F21A4213D00D4A236B506901FA69
:101DB00003F30342D4F818E00AD05361206838B125
:101DC000DEF808201342074B08BF02211B68984722
:101DD00001350434DEE7BDE8F08100BF7C0E002051
:101DE000000401409010002000200121FFF7C8BF2F
:101DF00001200146FFF7C4BF02200121FFF7C0BF49
:101E000003200121FFF7BCBF04200121FFF7B8BF69
:101E100005200146FFF7B4BF06200146FFF7B0BF1B
:101E20002DE9F74F9B464B1C81460D46019266D02B
:101E300001F00F0808F1FF33C1F303100E2B09D88E
:101E4000DFE803F00C1014181C1C1C1C1C202020A4
:101E5000202020002C4F0024062616E02B4F0124C2
:101E6000072612E02A4F022408260EE0294F0324F9
:101E700009260AE0284F04240A2606E0274F0524F5
:101E8000172602E0264F0624282600F0CBF94FFA49
:101E900086FA00900721284600F00EFA504639468F
:101EA000FFF700FF06F01F01012202FA01F01D49B1
:101EB0004FEA5A1341F823001B4B89F8006053F88E
:101EC00028604C2363431949A9F80C5002FA06F51F
:101ED000CA5800202A43C9F80440C9F80800CA506B
:101EE000132303FB0464009A01EB8403DA61C3F853
:101EF00004B0C3F83480019A0D4B1A6000E0084624
:101F000003B0BDE8F08F00BFE91D0008F11D000817
:101F1000F91D0008011E0008091E0008111E000816
:101F2000191E000800E100E0D86B00087C0E0020BC
:101F300090100020F8B5054644688089164A00F0E4
:101F40000F03C0F3031000F580100126423006FA9B
:101F500003F1800252F8237001F0D4FA4C2161435E
:101F60000E4ABE405358B5F90C0023EA0606132367
:101F700003FB04735650002402EB83014C60991D4F
:101F80000C3302EB810102EB83034C605C60214661
:101F900000F086FAAC60F8BDD86B00087C0E00201B
:101FA000A2B1012905D18368023B012B08D98160C8
:101FB0001EE0022921D1836823F00203012B03D103
:101FC00003238360082119E0816007E0012907D11C
:101FD0008368023B012B0DD80223836007210DE0AB
:101FE00002290AD1836823F00203012B02D1836006
:101FF000062103E08260114600E00C21B0F90C00DC
:1020000000F04EBAF8B52C4B2C4C5E6A1A6923606E
:10201000D20712D5DA68D7070FD56FF001021A611F
:10202000274B1A6801321A601A68B3B203EB0243F5
:10203000244A1360244B01221A701F4B1A6995071A
:102040001FD5DA6890071CD56FF002021F4D1A6188
:102050002B889BB233B1288880B202F0BDFA0023EE
:102060002B800EE01A4F3B684BB14FF6FF70B6B2B3
:1020700002F0B2FA2E803B68013B3B6001E003F0C6
:102080000BF923681A69510714D5DA68520711D57C
:102090006FF004020F4D1A615C6A2B68E31AB3F506
:1020A0007A7F07D300F084FE044B04F57A721B6834
:1020B0009A632C60F8BD00BF000800406413002044
:1020C000C0120020B4120020A0130020B81200207B
:1020D000C412002094100020274B37B5DA69274C32
:1020E00042F00402DA61DA69002502F0040201928A
:1020F000019A1A6942F004021A611A6922F0040274
:102100001A6102F0A1F91E4B1E4A23604FF6FF73BD
:10211000E3601D4B20461B682561B3FBF2F3013BD6
:102120006360A56001F0AEFF2946204602F07AF810
:102130002046042102F076F82268144B516A1E20D2
:1021400019601B68124903F57A739363FFF7AAFDC0
:10215000104B4FF080421A6023682046DA6842F044
:102160000102DA60DA6842F00402DA6001F047FF47
:10217000284603B030BD00BF0010024064130020A9
:102180000008004040420F00F8000020941000209A
:102190000520000800E100E008B503F0A7F896204C
:1021A00003F0F7F8962003F0F4F8F8E730B50546A9
:1021B0000C46A1B003F09AF829466846224603F07F
:1021C0002DFB051E03DC03F0BBF821B030BD094B2D
:1021D0001B6823B908480221032200F071FC002487
:1021E0001DF804100448013400F09EFDAC42F7D104
:1021F000E9E700BF9C120020181300200FB407B5B8
:1022000004A951F8040B0191FFF7D0FF03B05DF86A
:1022100004EB04B0704708B502F016F9BDE80840B9
:1022200000F0B4BD1FB5032833D8DFE800F0020E7C
:102230001A261B4B1B489A6942F004029A619B695B
:1022400003F004030393039B27E0154B16489A6998
:1022500042F008029A619B6903F008030093009B17
:102260001BE00F4B11489A6942F010029A619B697A
:1022700003F010030193019B0FE0094B0C489A698E
:1022800042F020029A619B6903F020030293029BB3
:1022900003E0084803F018F8002005B05DF804FBDF
:1022A0000010024000080140000C014000100140F5
:1022B00000140140186C00082DE9F043431C87B05E
:1022C00005460C4604D147484749562202F0EAFF2A
:1022D000C5F30310FFF7A6FF444B04F00F079A69FC
:1022E000C4F3021642F001029A619B69C4F3C31958
:1022F00003F00103ACB2019304F00F08019BB9F1A4
:10230000000F44D009F1FF31092940D8DFE801F07E
:10231000050A0F141920272E3338354A536843F025
:10232000010333E0324A536843F002032EE0304A9F
:10233000536843F0040329E02D4A536843F008032F
:1023400024E02B4A536823F0300343F010031DE0D0
:10235000274A536823F0C00343F0400316E0244AA1
:10236000536823F4406343F400630FE0204A53684A
:1023700043F440730AE01E4A536843F4406305E0A7
:102380001B4A536823F4C04343F480435360012342
:1023900003FA08F30293174B02A953F82730049667
:1023A00003930323059300F0E7FFA4F10D03012B32
:1023B00007D80F4A536823F0E06343F0806353600B
:1023C00009E00F2D07D10A4A536823F0E06343F078
:1023D0000073536002E0133C012CF4D907B0BDE850
:1023E000F08300BF41680008396C0008001002400B
:1023F00000000140906C0008F8B5431C07460D46EC
:1024000004D125482549A42202F04CFFC7F303104C
:10241000FFF708FFBCB204F00F06072E8DBF04F0D3
:102420000703B30002469B0088BF021D002D31D078
:10243000022D02D9032D21D0F8BD14680321994043
:1024400021420BD114680821994021431160116881
:10245000042404FA03F321EA03031360012D15BFDA
:102460000123C368C26805FA06F115BFB3401943DA
:1024700022EA0303C16018BFC360F8BD106805FA03
:1024800003F101421FBF1168042000FA03F30B435C
:1024900018BF1360F8BD00BF41680008396C000820
:1024A0002DE9F04184B20646C0F303100F46FFF752
:1024B000B9FE04F00F08B8F1070F8BBF04F0070452
:1024C0004FEA8804A400026888BF42684FF0030303
:1024D00003FA04F394BF0546051D1A4012D129687A
:1024E0000823A3400B4016D029680423A3400B42C5
:1024F00010D1C268012303FA08F3134214BF012369
:10250000022308E02A680423A34013420CBF0023DF
:10251000032300E0134607F00F013046BDE8F04109
:1025200041EA0311FFF7C8BE30B50268254B89B0F8
:1025300005460C4608461A60002103F06DFF40B9BD
:1025400020464FF07E5103F085FF18B14FF07E54C6
:1025500000E00024E86803F069FD214603F0BEFDB9
:1025600003F082FF60230193AB682861B0FBF3F0B6
:102570000023039304930593069307932B7D029006
:10258000013B032B1CD8DFE803F0080204060424F7
:1025900004E0082402E00C2400E00024094801A91A
:1025A000224601F0CFFD10B1074802F08DFE6B7D91
:1025B0000448214613B101F06DFE01E001F048FE30
:1025C00009B030BD98100020C46C000838B5C4684C
:1025D00094B1006903F02AFD0546204603F026FD6C
:1025E0000146284603F02EFE4FF07E51044603F0CC
:1025F00031FF18B9204638BD002038BD4FF07E505D
:1026000038BD00002DE9F041D0F80080264C054689
:102610000E46C4F80080FFF7D9FF41F21113D8F835
:102620002020074613405BB940F24443D8F82020ED
:1026300013402BB9D8F8003023F00103C8F800305C
:10264000B6F5803FACBF4FF4FA730123AB60174B74
:10265000174A1B68B3FBF2F2AB685343013BB3F577
:10266000803F636002D3134802F02EFEAA68731EF7
:10267000B3FBF2F3B3F5803FE36002D30E4802F000
:1026800023FE002308482361A36001F015FDEE60DE
:1026900028463946FFF748FF2268136843F00103D4
:1026A0001360BDE8F08100BF98100020F800002002
:1026B00040420F00DB6C0008F76C00087FB5044651
:1026C0000E4608462C4902F019FD2060013004D165
:1026D0002A482B492D2202F0E5FD3046264902F01A
:1026E00029FD431C054604D126482549312202F024
:1026F000D9FDC5F3C4232375234A2368C5F30045D8
:10270000934265750AD1214B9A6942F400629A613D
:102710009B6903F400630193019B1BE0B3F1804FBD
:102720000BD103F50433DA6942F00102DA61DB69A7
:1027300003F001030293029B0CE0154A934209D176
:10274000124BDA6942F00202DA61DB6903F002033C
:102750000393039B3046084902F094FC0023E36096
:1027600023610123A680A360204644F62061FFF781
:1027700049FF04B070BD00BFAC680008106D0008D0
:10278000286D0008776B0008002C01400010024003
:10279000000400404FF47A735943FFF733BF38B554
:1027A0000446084603F046FC0546E06803F03EFC9C
:1027B0000146284603F046FD01462046BDE8384064
:1027C000FFF7B2BE08B5084B1B685BB9074802218A
:1027D000032200F075F905484FF41651BDE8084092
:1027E00000F012BA08BD00BF9C1200201813002090
:1027F00002284FF0000309DD0749C21E51F82200EC
:1028000041F8223020B103685B68184718467047CA
:102810004FF0FF30704700BFD8100020022870B57D
:102820000C4615460FDC0E4B1B680BB9FFF7CAFFB1
:102830006619B44205D00B4814F8011B00F074FA75
:10284000F7E7284670BD084B033853F8200020B145
:10285000BDE8704003681B6818474FF0FF3070BD3B
:102860009C12002018130020D8100020022810B558
:102870000C460ADC0B4B1B680BB9FFF7A3FF0A4899
:1028800000F032FA2070012010BD084B033853F8D5
:10289000200020B1BDE8104003689B6818474FF046
:1028A000FF3010BD9C12002018130020D81000200B
:1028B000022807DD064B033853F8200020B10368D7
:1028C0001B691847002070474FF0FF30704700BF6A
:1028D000D810002008B5012000F046F8704708B570
:1028E000FFF799FCFFF7FAFF08BD704708B5FFF73F
:1028F000FCFFBDE80840FEF76DB900000C4A10B5BA
:1029000013681844EFF30881884205D3094B0C2261
:102910001A604FF0FF3010BD0749096821B1074C1C
:10292000246821448842F1D21060184610BD00BFCF
:10293000F4000020A4130020D4100020D81100209F
:102940000546074C08B52368986802F0DBFD23684C
:10295000D86802F0D7FD0DB1FFF71EFCFEE700BFFF
:10296000FC0000200120704708B5FFF7E9FF0120B7
:1029700070477047704708B5FFF7FBFF08BD08B503
:10298000FFF7F8FF08BD000010B502F0BBFE0446DB
:1029900010B9024802F098FC204610BD306E0008C5
:1029A00008B102F0B7BE70474309064900F01F00A6
:1029B00001228240203341F82320BFF34F8FBFF321
:1029C0006F8F704700E100E00346426810B5174979
:1029D0001C68920188188C509A68D9684260024637
:1029E00042F8081F1969516059699160196A00F12C
:1029F000100291600021C1848184C1858185B3F971
:102A00001A10013101D1082305E0B3F91830013360
:102A10000CBF04230C23536001F0E9FC20B1BDE896
:102A20001040034802F050BC10BD00BFDC11002074
:102A3000BD6E00081A4BF7B5074653F820001E4636
:102A400000282BD0174CBD0163591A6852060AD5CD
:102A5000DB68590607D5144B01211B689847635959
:102A60006FF040021A6063591A6892060DD5DB6850
:102A700098060AD50C4B56F827001B68002198478A
:102A8000084B6FF020025B591A6063591A681107EE
:102A900004D55A69D20744BF5B68019303B0F0BD07
:102AA000A0120020DC110020AC1200200020FFF753
:102AB000C1BF0120FFF7BEBF0220FFF7BBBF000070
:102AC000F0B5044685B008460E464549154602F065
:102AD00015FB44490746284602F010FB01463846DC
:102AE00002F0EEFA2060013004D13F483F496422F1
:102AF00002F0D8FB23683E4A934213D13D4BDA687B
:102B000042F48042DA60DA6822F48042DA609A693C
:102B100042F480429A619B6903F480430193019BD4
:102B200000232CE0344A934213D1324B1A6942F409
:102B300000321A611A6922F400321A61DA6942F429
:102B40000032DA61DB6903F400330293029B012354
:102B500015E02A4A934213D1264B1A6942F4802287
:102B60001A611A6922F480221A61DA6942F4802219
:102B7000DA61DB6903F480230393039B0223636020
:102B80003046174902F07EFA2846164902F07AFAD2
:102B9000721C03D030460121FFF72EFC6B1C03D0C2
:102BA00028460121FFF728FC4FF41653A3600023A9
:102BB000E360236163612362268365832046FFF718
:102BC00003FF22680C4B9A4207D10D4B01221A6079
:102BD0000C4821464C2202F0B3FD05B0F0BD00BF09
:102BE000D869000864680008D56E0008F16E000816
:102BF00000380140001002400044004000480040FE
:102C00009C120020181300208160FFF7DDBE000039
:102C1000034B19604168034B43F82120704700BF04
:102C2000AC120020A012002038B509C80D46214979
:102C3000884202D1204925240CE02049884202D153
:102C40001F49262406E01F49884219BF00210C466F
:102C50001D4927241D489B01AAB1C258D36815B944
:102C600043F0200301E043F0400365B2D3602846FF
:102C7000FFF718F804F007040123154A6D09A34073
:102C800042F8253038BDC358DA6835B922F0200241
:102C9000DA60DB681A0606D538BD22F04002DA6039
:102CA000DB689B0604D42046BDE83840FFF77CBEB5
:102CB00038BD00BF00380140AD2A00080044004084
:102CC000B32A000800480040B92A0008DC1100209F
:102CD00000E100E04368034A9B01D3581868C0F341
:102CE00040107047DC11002038B50546446828467E
:102CF000FFF7F0FF0028FAD0054AA301D358E9688E
:102D0000586809B9C0B238BDC0F3080038BD00BF6B
:102D1000DC1100204368034A9B01D3581868C0F3B4
:102D2000C0107047DC11002070B506460C4645689F
:102D30003046FFF7EFFF0028FAD0054AF168AB01F3
:102D4000D35809B9E4B201E0C4F308045C6070BD73
:102D5000DC11002008488546002103E0074B5B5842
:102D6000435004310648074B42189A42F6D301F00B
:102D7000F9FBFDF701FAFEE700500020D4730008CC
:102D8000EC00002074010020FEE77047074A08B5F8
:102D90001368032043F01003136000F0DBFA0F20E8
:102DA000FFF79AF9FFF7F1FF002008BD002002406D
:102DB000024A136801331360704700BFB01200204D
:102DC000014B1868704700BFB012002013B5019086
:102DD000FFF7F6FF0446FFF7F3FF019B001B984245
:102DE000F9D302B010BD7047F7B5044600260D4672
:102DF0000196FFF7E5FF236807469A68D20507D5D5
:102E0000A36A84F8246043F02003A362012083E0D6
:102E10005A68D60511D4DB6A13F4700F0DD12268FD
:102E2000136899072AD4681CFAD0002D52D0FFF7F6
:102E3000C7FFC01BA842F2D94CE0384B02201E68E5
:102E400000F0DEFF2368364A1969B6FBF0F00A404D
:102E50001ABBD968334A0A40FAB91969324A0A409A
:102E6000002A2ED1DA68314B1340002B14BF2923DE
:102E7000142300FB03F6019BB34228D322686FF0B2
:102E800012031360A36A43F40073A362936803F40C
:102E90006023B3F5602F31D12EE01969224A0A4030
:102EA0001AB9D968214A0A406AB11969204A0A4008
:102EB0005AB9DA681E4B1340002B14BFFC2354236D
:102EC000D7E72923D5E75423D3E7FC23D1E76B1CAD
:102ED0000ED045B9A36A032043F00403A362002384
:102EE00084F8243018E0FFF76BFFC01BA842F1D82C
:102EF000019B01330193BEE7E3680BB100200BE0B7
:102F0000A36A23F48073A362A06A10F48050F5D101
:102F1000A36A43F00103A36203B0F0BDF8000020F0
:102F2000244992242449920092244912922449006F
:102F3000499224000368D86C70470000F7B500235D
:102F4000019390F82430012B00F0AB80012380F82E
:102F500024304B680268062B0D6818D8576B4FF465
:102F6000787494FAA4F6B6FA86F6013B94FAA4F4BF
:102F7000B4FA84F45E4363434FF01F0E0EFA06F674
:102F800027EA060605FA03F33343536330E00C2BBC
:102F90004FF4787416D8176B94FAA4F6B6FA86F63E
:102FA000073B94FAA4F4B4FA84F45E4363434FF00D
:102FB0001F0E0EFA06F627EA060605FA03F3334358
:102FC000136315E0D76A94FAA4F6B6FA86F60D3BB9
:102FD00094FAA4F4B4FA84F45E4363434FF01F0EF2
:102FE0000EFA06F627EA060605FA03F33343D36220
:102FF000092D4FF03803896816D9D76893FAA3F6DC
:10300000B6FA86F6A5F10A0493FAA3F3B3FA83F3AA
:10301000664363434FF0070E0EFA06F627EA0606EC
:1030200099403143D16012E0166993FAA3F4B4FADF
:1030300084F493FAA3F3B3FA83F36C436B43072747
:1030400007FA04F426EA0404994021431161A5F12A
:103050001003012B01D900231EE0134B9A4216D115
:1030600093681B02F7D49368102D43F40003936018
:10307000F1D10E4B0E4A1B68B3FBF2F20A23534305
:103080000193019B002BE6D0019B013BF8E7836A8B
:1030900043F0200383620123002280F82420184695
:1030A00000E0022003B0F0BD00240140F800002041
:1030B00040420F0073B500230193036804469A68E9
:1030C000D20701D5002026E09A6842F001029A60FA
:1030D000124B134A1B68B3FBF2F30193019B13B12C
:1030E000019B013BF9E7FFF76BFE064623689B68EF
:1030F00013F00105E6D1FFF763FE801B0228F5D926
:10310000A36A84F8245043F01003A362E36A012009
:1031100043F00103E36202B070BD00BFF80000207D
:1031200040420F0090F8243010B5012B044655D0D2
:10313000012380F82430FFF7BDFF00284AD1A36A9D
:10314000274A23F4407323F0010343F48073A362FE
:103150002368934204D123494A6812F4702F05D1A1
:10316000A26A22F48012A2625A6804E0A26A42F4BF
:103170008012A2624A68520541BFA26A22F44052FC
:1031800042F48052A262A26A12F480521CBFE26A28
:1031900022F00602E262002284F824206FF002028C
:1031A0001A609A6802F46022B2F5602F0CD10C4AC2
:1031B000934205D1A2F58062526812F4702F03D1B8
:1031C0009A6842F4A00202E09A6842F480129A607F
:1031D000002010BD002384F8243010BD022010BD53
:1031E000002801400024014038B5036804469A686D
:1031F000D20701D4002038BD9A6822F001029A60FB
:10320000FFF7DEFD054623689B68DB07F2D5FFF775
:10321000D7FD401B0228F6D9A36A012043F0100312
:10322000A362E36A43F00103E36238BD38B50446A4
:10323000002800F08880836A23B9C36280F82430B4
:10324000FFF7D1FD2046FFF7CFFFA36A13F0100F61
:10325000A36A75D1002873D123F4885323F00203A5
:1032600043F00203A362E568022393FAA3F3B3FADF
:1032700083F3E0696268A1680243B1F5807F05FAD3
:1032800003F040EA020005D001290CBF4FF4807220
:10329000002200E00A466369012B15D165B94FF49D
:1032A000604595FAA5F5B5FA85F5A36942F4006283
:1032B000013BAB401A4307E0A36A43F02003A3623B
:1032C000E36A43F00103E3622368B1F5807F5D6840
:1032D00025F4694542EA05025A609D681B4A02EAE4
:1032E000050242EA00029A6001D0012909D14FF497
:1032F000700191FAA1F1B1FA81F12269013A8A4093
:1033000000E00022D96A21F470010A43DA629A6867
:103310000F4B1340834208D10020E062A36A23F0E0
:10332000030343F00103A36238BDA36A23F0120331
:1033300043F01003A362E36A43F00103E36202E097
:1033400043F01003A362012038BD00BFFDF7E1FF89
:10335000FE0E1FFF074A00F00700D36823F4E06366
:103360001B041B0C43F0BF6343F4003343EA002308
:10337000D360704700ED00E00023F7B51D46012241
:103380000C68AA401440944240F0AC804A68122A6B
:103390002BD00ED8022A25D004D84AB3012A30D126
:1033A000CB682EE0032A1BD0112A2AD1CB68043324
:1033B00027E04F4EB2421BD006D8A6F58016B24287
:1033C00016D006F5803608E04A4EB24210D006F517
:1033D0008036B2420CD0A6F58016B24211D107E079
:1033E00000230EE0CB6808330BE0CB680C3308E019
:1033F0008B682BB1012B0CBF04614461082300E0F2
:103400000423FF2C97BF8646A5F108070668AF0086
:1034100084BF4668BF004FF00F0202FA07FC26EA9D
:103420000C0603FA07F746EA070688BF00F1040E08
:10343000CEF800604F68FE0054D52F4E05F0030C07
:10344000D6F818E04FEA8C0C4EF0010EC6F818E0E2
:10345000B66902FA0CF206F001060196019E25F00B
:10346000030606F1804606F58036D6F808E02EEA17
:10347000020E224A90420ED002F5806290420CD099
:1034800002F5806290420AD002F5806290420CBF41
:103490000322042204E0002202E0012200E00222D2
:1034A00002FA0CF242EA0E02B260154A17F4803FAB
:1034B000166814BF2643A6431660566817F4003FEB
:1034C00014BF2643A6435660966817F4801F14BFA6
:1034D0002643A6439660D668BF024CBF344326EA13
:1034E0000404D4600135102D7FF449AF03B0F0BD62
:1034F00000002110000031100010024000080140BF
:1035000000040140F0B5002531FA05F35DD0012437
:10351000AC400C4057D0FF2C98BF86466FEA04049D
:103520008BBFA5F1080703684368AF0088BFBF00E1
:103530004FF00F0606FA07F223EA02034FF00402E7
:1035400002FA07F288BF00F1040E1343CEF80030F0
:10355000C36825F00302234002F18042C36002F5F4
:10356000803205F003079368BF00BE4006EA030EF1
:10357000164B98420ED003F5806398420CD003F5A9
:10358000806398420AD003F5806398420CBF0323FE
:10359000042304E0002302E0012300E00223BB40F7
:1035A0009E4510D1936823EA0606094B96601A6877
:1035B00022401A605A6822405A609A6822409A60F3
:1035C000DA681440DC6001359EE7F0BD0008014078
:1035D000000401400368F7B50546D80703D42B68FB
:1035E000990773D4F0E0B74C636803F00C03042B25
:1035F00007D0636803F00C03082B16D16368DA0365
:1036000013D54FF4003393FAA3F2226893FAA3F38D
:10361000B3FA83F303F01F0322FA03F3DB07DED5CB
:103620006B68002BDBD1012030E26B68B3F5803F83
:1036300013D05BB9236823F480332360236823F419
:1036400080232360FFF7BCFB06462FE0B3F5A02FD5
:10365000236806D143F480232360236843F4803336
:1036600005E023F480332360236823F48023236060
:10367000FFF7A6FB06464FF4003393FAA3F2226845
:1036800093FAA3F3B3FA83F303F01F0322FA03F3CD
:10369000DF07A4D4FFF794FB801B6428EBD9032039
:1036A000F4E1FFF78DFB801B6428F8D84FF400335A
:1036B00093FAA3F2226893FAA3F3B3FA83F303F025
:1036C0001F0322FA03F3D807EBD488E77D4C636825
:1036D00013F00C0F07D0636803F00C03082B20D104
:1036E0006368D9031DD4022393FAA3F2226893FAE4
:1036F000A3F3B3FA83F303F01F0322FA03F3DA0709
:1037000002D52B69012B8ED12268F82191FAA1F103
:10371000B1FA81F16B6922F0F8028B401343236008
:1037200052E02A69012372B393FAA3F2B2FA82F249
:10373000920002F1844202F584021360FFF740FB1D
:103740000646022393FAA3F25E48226893FAA3F393
:10375000B3FA83F303F01F0322FA03F3DB0705D464
:10376000FFF72EFB801B0228EBD998E70268F821AF
:1037700091FAA1F1B1FA81F16B6922F0F8028B4064
:103780001343036020E093FAA3F3B3FA83F39B009F
:1037900003F1844303F584031A60FFF711FB064627
:1037A000022393FAA3F2226893FAA3F3B3FA83F302
:1037B00003F01F0322FA03F3DF0705D5FFF700FB31
:1037C000801B0228ECD96AE72B681C0746D5AA693A
:1037D0003C4C01233C4912B393FAA3F2B2FA82F2B1
:1037E00041F82230FFF7ECFA0646022393FAA3F2DF
:1037F00093FAA3F2626A93FAA3F3B3FA83F303F0A2
:103800001F0322FA03F3D80705D4FFF7D9FA801B68
:103810000228EAD943E70120FFF7D8FA1EE093FA1D
:10382000A3F3B3FA83F341F82320FFF7C9FA06465E
:10383000022393FAA3F293FAA3F2626A93FAA3F330
:10384000B3FA83F303F01F0322FA03F3D90705D574
:10385000FFF7B6FA801B0228EAD920E72B685A073F
:1038600004D4EA69002A40F08680DEE0154C174A4D
:10387000E36943F08053E361E36903F0805301930C
:10388000019B136843F480731360FFF799FA0646AF
:103890000E4B1B68DB0505D4FFF792FA801B6428EA
:1038A000F6D9FCE6EB68012B18D08BB9236A23F01C
:1038B00001032362236A23F004032362FFF780FAE3
:1038C000064640E000100240800442420070004082
:1038D000052B236A06D143F004032362236A43F0D5
:1038E000010305E023F001032362236A23F00403AC
:1038F0002362FFF765FA0646022393FAA3F293FACE
:10390000A3F2B2FA82F242F0400252099A420CBF8C
:10391000226A626A93FAA3F3B3FA83F303F01F03F4
:10392000DA40D7079DD4FFF74BFA41F28833801B6A
:103930009842E1D9B3E6FFF743FA41F28833801B9E
:1039400098423FF6ACAE022393FAA3F293FAA3F2A5
:10395000B2FA82F242F0400252099A420CBF226A45
:10396000626A93FAA3F3B3FA83F303F01F03DA4016
:10397000D007E0D475E7464C636803F00C03082BCE
:103980003FF451AE022A4FF080735CD193FAA3F357
:10399000B3FA83F39B0003F1844303F5840300220D
:1039A0001A60FFF70DFA06464FF0007393FAA3F280
:1039B000374F226893FAA3F3B3FA83F303F01F039C
:1039C00022FA03F3D90732D42E6AB6F5803F01BF3D
:1039D000796821F40030A968014308BF7960636801
:1039E0006A6A23F474133243134363604FF08073A5
:1039F00093FAA3F3B3FA83F39B0003F1844303F533
:103A0000840301221A60FFF7DBF905464FF00073CB
:103A100093FAA3F2226893FAA3F3B3FA83F303F0C1
:103A20001F0322FA03F3DA0707D500202EE0FFF781
:103A3000C7F9801B0228B7D931E6FFF7C1F9401B4F
:103A40000228E3D92BE693FAA3F3B3FA83F39B009E
:103A500003F1844303F5840300221A60FFF7B0F9F1
:103A600005464FF0007393FAA3F2226893FAA3F38A
:103A7000B3FA83F303F01F0322FA03F3DB07D4D571
:103A8000FFF79EF9401B0228EBD908E603B0F0BD12
:103A9000001002401F4B70B503F110052E4686B092
:103AA00002AC224618685968083303C2AB42144678
:103AB000F7D133881848ADF80430416801F00C03A1
:103AC000082B23D14FF4701292FAA2F2B2FA82F2CA
:103AD00001F47013D34006AA134413F8102CCB033F
:103AE00011D543684FF4003191FAA1F1B1FA81F197
:103AF00003F40033CB4006A90B4413F8140C074B16
:103B0000B3FBF0F000E00648504300E0034806B085
:103B100070BD00BFBA6F00080010024000127A00AA
:103B200000093D00544AF8B51368064603F0070340
:103B300099420D460AD831688C0713D54F4843681F
:103B400023F0F002B368134343600BE0136823F0E3
:103B500007030B431360136803F007038B42EAD09B
:103B60000120F8BDC80706D4434A136803F00703D1
:103B70009D424DD356E07268404C012A02D14FF469
:103B8000003304E0022A0CBF4FF00073022393FAC3
:103B9000A3F1216893FAA3F3B3FA83F303F01F03AD
:103BA00021FA03F3D907DBD5636823F003031A4333
:103BB0006260FFF705F973680746012B0DD1636852
:103BC00003F00C03042BCFD0FFF7FAF841F288334F
:103BD000C01B9842F3D90320F8BD022B13D16368B0
:103BE00003F00C03082BBFD0FFF7EAF841F288334B
:103BF000C01B9842F3D9EEE7FFF7E2F841F28833B1
:103C0000C01B9842E7D8636813F00C0FF4D1ABE700
:103C1000136823F007032B431360136803F00703B3
:103C2000AB429DD13168154C11F0040F05D063688B
:103C300023F4E062F368134363600B0741BF6368DA
:103C4000326923F4605343EAC20348BF6360FFF75D
:103C500021FF6368F02292FAA2F2B2FA82F203F034
:103C6000F003D340064AD35CD840064B18600F20BF
:103C7000FEF732FA0020F8BD00200240001002409A
:103C8000DE6F0008F8000020084B4FF4E0625B682C
:103C900092FAA2F2B2FA82F203F4E063D340044A49
:103CA000D35C044A1068D840704700BF001002403F
:103CB000EE6F0008F8000020084B4FF460525B687C
:103CC00092FAA2F2B2FA82F203F46053D340044AA9
:103CD000D35C044A1068D840704700BF001002400F
:103CE000EE6F0008F80000200368F7B5DC07054612
:103CF00067D5404C404AE36943F08053E361E36990
:103D000003F080530193019B136843F480731360A5
:103D1000FFF756F80646384B1B68D80506D4FFF760
:103D20004FF8801B6428F6D9032060E0236A3148ED
:103D300013F4407306D1236A23F440726B68134373
:103D400023623EE06A6802F440729342F3D0016A53
:103D50004FF4803321F4407793FAA3F2B2FA82F25F
:103D6000264E4FF0010E46F822E093FAA3F3B3FA81
:103D700083F30022C90746F823200762DBD5FFF74B
:103D80001FF80646022393FAA3F293FAA3F2B2FABB
:103D900082F242F0400252099A420CBF226A626AE1
:103DA00093FAA3F3B3FA83F303F01F03DA40D207C5
:103DB000C1D4FFF705F841F28833801B9842E1D95E
:103DC000B2E72868830741BF0A494B6823F44042A1
:103DD000AB6844BF13434B6010F0100007D0054997
:103DE00000204B6823F48002EB6813434B6003B060
:103DF000F0BD00BF001002400070004000044242CD
:103E00003F4BF0B503F110060446374687B002ADCC
:103E10002A4618685968083303C2B3421546F7D1D9
:103E20003B88022CADF8043051D0102C02D0012C6C
:103E300062D12EE033494C68086810F080705CD085
:103E40004FF4701292FAA2F2B2FA82F204F47013F2
:103E5000D34006AA1344E20313F8103C11D54A6874
:103E60004FF4003090FAA0F0B0FA80F002F4003283
:103E7000C24006A8024412F8140C234AB2FBF0F028
:103E800000E0224858434B685B0236D440000323CD
:103E90002CE040F202311B4A136A1940B1F5817FD0
:103EA00027D003F44073B3F5007F05D1536A49F678
:103EB000404013F0020F07E0B3F5407F1CD14FF2F2
:103EC0002440136813F4003F08BF002015E0FFF7FB
:103ED000F3FE0C4B4FF480425B6892FAA2F2B2FA06
:103EE00082F203F44043D34001335B00B0FBF3F0B4
:103EF00003E04FF4004000E0002007B0F0BD00BF39
:103F0000CC6F00080010024000127A0000093D004A
:103F1000036A70B523F001030362036A426884698F
:103F20000D6824F07304254323F002048B682343B7
:103F30000A4CA0420BD1CC6823F0080323438E69BE
:103F40004C6922F44072344323F00403224342605C
:103F50004A6885614263036270BD00BF002C014066
:103F6000036A30B523F480730362036A4268C4694C
:103F70000D6824F073042C438D6823F4007343EA26
:103F800005230C4DA8420ED1CD6823F4006343EA0B
:103F900005234D6922F4405242EA05128D6923F44B
:103FA000806342EA051242604A68C461C2630362E8
:103FB00030BD00BF002C0140036A30B523F48053AC
:103FC0000362036A4468C2690D6822F4E64242EA69
:103FD00005228D6823F4005343EA0533064DA842B9
:103FE00002BF4D6924F4804444EA85144460C261F0
:103FF0004A680264036230BD002C014070470268C9
:10400000022380F83930136843F001031360012361
:1040100080F839300020704770470000184A036864
:1040200090420AD0B0F1804F07D0A2F5943290426E
:1040300003D002F58062904215D14A6823F07003E4
:1040400013430F4A90420AD0B0F1804F07D0A2F537
:104050009432904203D002F58062904203D1CA6844
:1040600023F44073134303608B68C3620B6883625D
:10407000034B984204BF0B690363012343617047FC
:10408000002C014010B50446A0B190F8393003F07F
:10409000FF021BB980F83820FFF7B0FF022384F835
:1040A00039302068211DFFF7B9FF012384F839302A
:1040B000002010BD012010BD10B50446A0B190F83D
:1040C000393003F0FF021BB980F83820FFF7A4FF56
:1040D000022384F839302068211DFFF79FFF012358
:1040E00084F83930002010BD012010BD036A30B5BE
:1040F00023F010030362036A426884690D6824F4A4
:10410000E64444EA05248D6823F0200343EA0513BE
:104110000B4DA8420ED1CD6823F0800343EA05136E
:104120004D6922F4406242EA85028D6923F0400322
:1041300042EA850242604A6884618263036230BD5C
:10414000002C014038B590F838300446012B0D465C
:104150004FF0020058D0012384F8383084F8390039
:104160000C2A4BD8DFE802F0074A4A4A174A4A4A63
:10417000294A4A4A39002068FFF7CAFE23689A692B
:1041800042F008029A619A6922F004029A619969E0
:104190002A690A430FE02068FFF7A8FF236829690E
:1041A0009A6942F400629A619A6922F480629A6183
:1041B0009A6942EA01229A6120E02068FFF7D0FE66
:1041C0002368DA6942F00802DA61DA6922F004024F
:1041D000DA61D9692A690A430FE02068FFF7ECFE2B
:1041E00023682969DA6942F40062DA61DA6922F443
:1041F0008062DA61DA6942EA0122DA610123002091
:1042000084F8393084F8380038BD10B50123046AC9
:104210008B4024EA03030362036A8A401343036268
:1042200010BD000010B5044601220068FFF7EDFF45
:104230002368064A0020934202BF5A6C42F40042AF
:104240005A641A6842F001021A6010BD002C014045
:1042500010B5044601220068FFF7D7FF2368064A1D
:104260000020934202BF5A6C42F400425A641A681A
:1042700042F001021A6010BD002C014010B5042369
:10428000046A8B4024EA03030362036A8A401343EF
:10429000036210BD10B5044604220068FFF7EEFF6C
:1042A000236800205A6C42F400425A641A6842F0B3
:1042B00001021A6010BD00002DE9F0470568016990
:1042C0002B69804623F44052C368192413432B61A1
:1042D0008368EA6819434369194322F4B05323F011
:1042E0000C030B43EB606B6923F440728369134347
:1042F0006B613D4B9D4231D1FFF7DEFC6043D8F846
:1043000004604FF06409B600B0FBF6F6FFF7D4FC8A
:104310006043D8F80430B6FBF9F69B00B0FBF3F726
:10432000FFF7CAFC6043D8F8043036019B00B0FBAD
:10433000F3F0B0FBF9F009FB10731B013233B3FB50
:10434000F9F303F0F007FFF7B7FC6043D8F8042057
:104350009200B0FBF2FAFFF7AFFC30E0FFF794FCFD
:104360006043D8F804604FF06409B600B0FBF6F67D
:10437000FFF78AFC6043D8F80430B6FBF9F69B00DF
:10438000B0FBF3F7FFF780FC6043D8F80430360148
:104390009B00B0FBF3F0B0FBF9F009FB10731B01BD
:1043A0003233B3FBF9F303F0F007FFF76DFC604322
:1043B000D8F804209200B0FBF2FAFFF765FC444302
:1043C000D8F804008000B4FBF0F0B0FBF9F009FB72
:1043D00010A212013232B2FBF9F202F00F02BB1846
:1043E0003344AB60BDE8F08700380140704710B53A
:1043F000044630B390F8393003F0FF021BB980F85F
:104400003820FFF7F3FF2268022384F83930D3689D
:10441000204623F40053D360FFF74EFF23680020AB
:104420001A6922F490421A615A6922F02A025A61EA
:10443000DA6842F40052DA600123E06384F839302C
:1044400010BD012010BD0000114A124B516801F04F
:104450000C01042901D0082901D00F490EE0516850
:104460005068C1F38341C00301F1020102D55068D5
:10447000800301D5094800E00748414319605268AC
:104480000749C2F30312895C1A68CA401A60704770
:1044900000100240F800002000127A0000093D00E0
:1044A000DE6F000830B5012391B0069310B94FF4C8
:1044B000803301E04FF4A02307934FF480330024AE
:1044C00002250E9306A84FF4E01308940D950F9360
:1044D000FFF780F878B90F23019303904FF48063BE
:1044E0000590294601A802950493FFF71BFBB0FA3B
:1044F00080F0400900E0204611B030BD30B5032304
:1045000091B0069301230A93102300240B930225F4
:104510004FF4601306A807940D950E940F93FFF7C0
:1045200059F878B90F23019303904FF480630590F5
:10453000294601A802950493FFF7F4FAB0FA80F037
:10454000400900E0204611B030BD08B50120FFF75A
:10455000A9FF30B9FFF7A6FF18B9FFF7CFFF00B9E1
:10456000FEE708BD10B5174C236843F00103236034
:104570006268154B1340636023684FF0006223F0BC
:10458000847323F480332360236823F4802323601F
:10459000636823F4FE0363604FF41F03A3600B4BB7
:1045A0009A600B4B0B4A1A60FEF7F0FBFFF7CDFF4A
:1045B000236943F004032361236923F00403236187
:1045C00010BD00BF001002400000FFF800ED00E049
:1045D000F800002000127A00044B054A136058636B
:1045E000DA6842F00202DA60704700BF000800405B
:1045F00064130020054B186830B901221A60044A80
:10460000044B1A60FDF768BD704700BFBC12002064
:1046100000080040641300200B4B0C4A10B51360D7
:104620000B4A1C4612680AB9FFF7E4FF094A002347
:1046300009491370636A08681278012A0ABF074B98
:1046400003EB0040186810BD000800406413002010
:10465000BC120020A0130020C0120020B4120020C1
:1046600038B50446FFF7D8FF144B201A5D6A0028BE
:10467000ADB203DCBDE8384000F00EBE104B114C6B
:10468000021480B21A6020802288C5F57F4392B25E
:10469000FF339A4207DC2088284480B2FFF79CFF52
:1046A0000023238038BD4FF6FF70FFF795FF208869
:1046B00080B20130284480B2208038BD000800401C
:1046C000C4120020B8120020034B044A1360DA68B9
:1046D00022F00202DA6070470008004064130020F4
:1046E000044B054A13601A69920744BF6FF0020237
:1046F0001A6170470008004064130020704770473B
:1047000070B504460546064B00F14006036055F8B7
:10471000040F08B1FEF744F9B542F8D1204670BD48
:104720000070000810B50446FFF7EAFF2046FEF7C8
:1047300037F9204610BD00002DE9F0410546A84696
:1047400088B0ADF80430BDF938302F48ADF80630E8
:10475000BDF93C300024ADF80830BDF94030286088
:10476000ADF80A30BDF94430ADF80010ADF80C30AA
:10477000BDF94830ADF80220ADF80E30BDF94C302F
:104780006C64ADF81030BDF95030ADF81230BDF9A1
:104790005430ADF81430BDF95830ADF81630BDF9CD
:1047A0005C30ADF81830BDF96030ADF81A30BDF9A5
:1047B0006430ADF81C30BDF96830ADF81E303DF9FD
:1047C00014707B1C0CD01420FEF7DEF80646002186
:1047D000142200F0C0FF3046394600F036FC00E0FD
:1047E000002601371FBF01236A6CA340134304F165
:1047F000010448F8046F18BF6B64102CDFD1284601
:1048000008B0BDE8F08100BF0070000803682DE922
:10481000F0419B68054698470124002755F824601D
:1048200004F1FF3896B1B6F90030013304D10C48D9
:104830000C49482200F036FDB3681A6873681A42C2
:1048400014BF0123002303FA08F31F430134112C82
:10485000E4D12B682846DB6898473846BDE8F081EC
:104860003C680008107000087047704770B5044637
:104870000546064B00F14006036055F8040F08B1E9
:10488000FEF78EF8B542F8D1204670BDE070000802
:1048900010B50446FFF7EAFF2046FEF781F82046F0
:1048A00010BD00002DE9F0410546A84688B0ADF8DE
:1048B0000430BDF938302F48ADF80630BDF93C3032
:1048C0000024ADF80830BDF940302860ADF80A305A
:1048D000BDF94430ADF80010ADF80C30BDF94830EA
:1048E000ADF80220ADF80E30BDF94C306C64ADF877
:1048F0001030BDF95030ADF81230BDF95430ADF87C
:104900001430BDF95830ADF81630BDF95C30ADF853
:104910001830BDF96030ADF81A30BDF96430ADF82B
:104920001C30BDF96830ADF81E303DF914707B1CA9
:104930000CD01420FEF728F806460021142200F0BF
:104940000AFF3046394600F09AFB00E000260137A6
:104950001FBF01236A6CA340134304F1010448F80C
:10496000046F18BF6B64102CDFD1284608B0BDE877
:10497000F08100BFE070000803682DE9F0419B68FA
:10498000064688469847012456F82450631E95B180
:1049900048FA03F7B5F9003007F00107013304D1F5
:1049A00009480A493A2200F07DFC6B680FB1EA68B9
:1049B00000E02A6913600134112CE5D133683046D8
:1049C000BDE8F041DB6818473C680008107000083B
:1049D00003682DE9F0419B680546984701240027AC
:1049E00055F8246004F1FF3896B1B6F90030013370
:1049F00004D10C480C49482200F054FCB3681A68F2
:104A000073681A4214BF0123002303FA08F31F43FB
:104A10000134112CE4D12B682846DB6898473846CE
:104A2000BDE8F0813C680008107000087047000085
:104A300010B50446074B40F8183BFDF77BFA04F12C
:104A40003800FCF75DF804F12800FCF759F820461F
:104A500010BD00BF3871000810B50446FFF7E8FF2D
:104A60002046FDF79DFF204610BD000038B50446E6
:104A70000D46FCF745F82CB10DB9E56038BD024B89
:104A80002560E36038BD00BFB86600082DE9F0413D
:104A9000054604460E46154B04F1180745F8043B3D
:104AA00028460021142200F056FEDFF8488010222C
:104AB0003846002100F04FFE00236363636404F175
:104AC00028004146FFF7D2FF04F138004146FFF7C6
:104AD000CDFF3146064A23463846FDF7A1F9284660
:104AE000314600F0B2FA2046BDE8F0813871000886
:104AF000C94B00082D4A00082DE9F0410D46064635
:104B000000F0F4FBEF6806F1280406F118082046CF
:104B100077B1FBF7F5FF3CB1EB681BB15B68204652
:104B200029469847EB687363012140460A4605E031
:104B30000549FFF79BFF40463A460121FDF730FA51
:104B4000BDE8F04100F0FCBB2D4A00082DE9F04122
:104B50000D46064600F0CAFBEF6806F1380406F180
:104B60001808204677B1FBF7CBFF3CB1EB681BB1CF
:104B70005B68204629469847EB68736440460221EB
:104B8000012205E00549FFF771FF40463A46022140
:104B9000FDF706FABDE8F04100F0D2BB2D4A00084F
:104BA000C36810B504462BB90548064940F2E71220
:104BB00000F078FBE3682046BDE810401B6818470A
:104BC0004071000845710008012908B502D002298A
:104BD00002D008BD283000E03830FFF7E1FF08BD03
:104BE0007047704710B5044600F098F8014B204616
:104BF000236010BD9871000838B5044603681B682F
:104C00009847204600F080F80546236820465B68F8
:104C10009847284638BD38B504460D4603681B68DA
:104C200098472946204600F072F80546236820463A
:104C30005B689847284638BD70477047704710B585
:104C400088B1146853680CB9DA070CD513F0010F5A
:104C50004FEA630318BFC258184418BF14592346BB
:104C6000BDE81040184710BD70B509014418D4F8CC
:104C7000A43001F1980505442BB90648064940F2D5
:104C8000E71200F00FFBD4F8A4302846BDE87040CE
:104C90001B681847407100084571000870B505464B
:104CA0000E46044655F84C3B1B689847284631464B
:104CB000FDF7AAFF2368C4F8B8602046BDE870403D
:104CC0005B68184738B5054655F84C3B04461B68E9
:104CD00098472846FDF7FEFF0546236820465B6897
:104CE0009847284638BD38B5054655F84C3B04462C
:104CF0001B6898472846FEF70DF8054623682046AE
:104D00005B689847284638BD4C30FDF7EDBF10B5BD
:104D10000C464C30FEF708F8204610BD2DE9F3474D
:104D20009046024604469A462B4B002542F8083B23
:104D3000009502AB0195894613E90300274B82E8F1
:104D40000300236148F207036361254BE561A46119
:104D500022626362BFF36F8FBFF34F8F04F14C0683
:104D600004F198076563656484F8485084F84950F5
:104D7000304629464C2200F0EEFCC4F8A450C4F89A
:104D8000B450C4F8B8A03846FBF7BAFE2FB1154BA3
:104D9000C4F89830144BC4F8A43004F1A805284690
:104DA000FBF7AEFE2DB10F4BC4F8A8300E4BC4F884
:104DB000B430424630464946FDF782FE3046D4F8CC
:104DC000B810FDF721FF304608492246FDF720FFC5
:104DD000204602B0BDE8F087B071000801A090E85D
:104DE0003F4C0008394C0008B8660008694C0008C0
:104DF0002DE9F04107468846164657F84C3B0546D4
:104E00001B68984700F072FAD8F80C3034019834D7
:104E1000ABB12C442046FBF773FE64B1D8F80C30DC
:104E20001BB15B68204641469847D8F80C2005EB3B
:104E30000613C3F8A42038463146012211E005EBE1
:104E400004084046FBF75CFEB8F1000F06D00A4BA1
:104E50000A4A2B5105EB0613C3F8A4203846314605
:104E60000022FDF7E1FE00F06BFA2B682846BDE852
:104E7000F0415B68184700BF394C0008B86600086D
:104E8000436A70B5044600F118052BB90548064978
:104E900040F2E71200F006FA636A2846BDE8704067
:104EA0001B681847407100084571000870B504463A
:104EB0004368416904F11805194400F063F9636A15
:104EC0002BB90648064940F2E71200F0EBF9636A95
:104ED0002846BDE870401B68184700BF40710008B5
:104EE0004571000838B505460C4600F0FFF9284624
:104EF00000F04EF96C61286900F0C7F901192846E5
:104F000000F040F9BDE8384000F01ABA38B5044660
:104F100000F0ECF904F11805204600F039F92846B4
:104F2000FBF7EEFD0DB100236362BDE8384000F0F1
:104F300007BA10B5044600F0D9F923682BB9E06828
:104F400000F0A3F9012360602360BDE8104000F089
:104F5000F7B938B5054600F0C9F92C6824B1E868FE
:104F600000F093F96C68041B00F0EAF9204638BDA4
:104F700010B5044600F0BAF92046FFF7EAFFA3682F
:104F800018440023A0602360BDE8104000F0D8B9A9
:104F900038B5054600F0AAF92846AC68FFF7D9FFF6
:104FA000044400F0CDF9204638BD08B5FFF7F0FF06
:104FB0004FF47A7390FBF3F008BD10B5044600F08F
:104FC00095F9E06800F061F900236060A360BDE836
:104FD000104000F0B5B9002310B503604360836052
:104FE000044600F055F9E0602046FFF7E6FF204652
:104FF00010BD000038B5B0F90030044601330D464D
:1050000004D1064806493A2200F04CF963680DB114
:10501000E26800E02269136038BD00BF3C68000808
:105020001070000870B50E4604461546FCF770FE79
:10503000013609D020460021FCF786FE204629468D
:10504000BDE87040FCF77CBE70BD0022FFF7EABFF0
:1050500070B50E4604461546FCF75AFE01360DD0D3
:1050600020462946FFF7C6FF20460121FCF76CFECB
:105070002046BDE870400021FCF762BE70BD0022F2
:10508000FFF7E6BF10B50446013001D110BD0C3169
:10509000B1F900305A1C0BD0A342F8D120468968E0
:1050A000FDF70AF92046BDE810400021FDF7A4B93C
:1050B0000248BDE8104000F007B900BFEC710008DD
:1050C000884208B50AD0431C07D0013106D00448F5
:1050D00000F0FAF84FF0FF3008BD084608BD00BFE9
:1050E000FD710008B1F900305A1C05D0834201D18E
:1050F000486870470C31F5E718467047421C10B5F8
:10510000044607D0FFF7EEFF431C044602D10248D5
:1051100000F0DAF8204610BD0E720008B1F9003038
:105120005A1C05D0834201D1886870470C31F5E7DD
:1051300018467047421C10B5044607D0FFF7EEFF33
:10514000431C044602D1024800F0BEF8204610BDC0
:105150002E72000803689B6818470000074B10B5C3
:105160000360002343608360C360044600F090F84E
:105170000349206100F01CF8204610BD5872000859
:105180005551000803460A460069191D00F03DB854
:1051900001460069043100F059B8000010B504461A
:1051A000024B0360FFF7F4FF204610BD5872000861
:1051B00038B504460D4603681B68984763681D6050
:1051C00038BD036870B5DB680446984763685A6861
:1051D00023681AB99B68BDE8704018475B6815687A
:1051E0009847281A0028636808DC5A689168596053
:1051F0001B68002BEAD050689847E7E721685A6897
:10520000BDE870400B6910681847F8B507460D46B1
:105210001C46164600F06AF879686C604C682E608F
:10522000002334B12268B21A002A02DB2346A468A4
:10523000F7E72BB93B684D601B693046984700E0A3
:105240009D60AC60BDE8F84000F07AB838B505461E
:105250000C4600F04BF86A685368A3420BD19B6878
:1052600053602A6813B9936898470AE0126918686E
:10527000904706E0134623B19A68A242FAD1A26889
:105280009A60BDE8384000F05BB803685B68184777
:1052900000487047787200080148FFF792BF00BFCE
:1052A0007872000870B506460D46144600F01EF8E8
:1052B00031462A4623460348FCF7A0FFBDE870406C
:1052C000FCF76ABF807200080FB407B504A951F853
:1052D000040B0191FCF76AFF0120FDF745FBEFF39A
:1052E000108000F0010080F00100704738B5FFF732
:1052F000F6FF80F00100C5B272B60C4C23680BB902
:105300000B4B1D702368013304D10A480A4935222A
:10531000FFF7C8FF23682BB125B908480649392291
:10532000FFF7C0FF23680133236038BDD812002087
:10533000DC120020B1720008D77200081A7300084E
:1053400010B50A4C236883B1FFF7C9FF20B10848A4
:1053500008494A22FFF7A6FF2368013B2360236820
:105360001BB9054B1B7803B962B610BDD8120020DB
:105370001A730008D7720008DC12002038B5044602
:10538000FFF74AF90546FFF747F9401BA042FAD359
:1053900038BD4FF47A735843FFF7F0BFFDF700BBF9
:1053A0008A892DE9F041054610070C465AD44B680E
:1053B000002B05DC0B6C002B02DC0020BDE8F0812B
:1053C000E66A002EF9D0002312F480522F682B6079
:1053D00033D0606DA3895A0705D56368C01A636B23
:1053E0000BB1236CC01A00230246E66A216A2846E4
:1053F000B047431CA38906D129681D294BD82B4AE5
:10540000CA40D60747D5002262602269D9042260CB
:1054100004D5421C01D12B6803B96065616B2F6014
:105420000029CAD004F14403994202D0284601F071
:105430003FF800206063BDE8F081216A012328461F
:10544000B047411CC6D12B68002BC3D01D2B01D007
:10545000162B01D12F60B0E7A38943F04003A3814D
:10546000BDE8F0810F69002FA7D0930718BF002374
:105470000E6808BF4B69A6EB07080F608B60B8F198
:10548000000F9ADD43463A46216A2846A66AB0478D
:10549000002807DCA38943F04003A3814FF0FF30CD
:1054A000BDE8F0810744A8EB0008E8E701004020D0
:1054B00038B50B6905460C46DBB118B183690BB9E9
:1054C00000F072F80C4B9C4209D16C68B4F90C30B6
:1054D0007BB121462846BDE83840FFF761BF074B46
:1054E0009C4201D1AC68F1E7054B9C4208BFEC68D7
:1054F000ECE7002038BD00BF50730008707300084F
:1055000030730008014620B9044B0549186800F0C3
:10551000B7B8044B1868FFF7CBBF00BF9073000803
:10552000B1540008FC000020014900F0A9B800BFF8
:10553000B1540008002310B5044603604360836043
:1055400081814366C28103614361836119460822F8
:105550005C3000F000F9054B24626362044BA362E7
:10556000044BE362044B236310BD00BF6757000880
:1055700089570008C1570008E557000870B568252D
:105580004A1E55430E4605F1740100F08DFF044696
:1055900040B1002180E842000C30A06005F16802B3
:1055A00000F0D9F8204670BD836910B5044633BBBE
:1055B0008364C3640365124B124A1B68826298427B
:1055C00004BF0123836100F01FF86060204600F0F3
:1055D0001BF8A060204600F017F80022E0600421CC
:1055E0006068FFF7A7FF01220921A068FFF7A2FF6B
:1055F00002221221E068FFF79DFF0123A36110BD85
:105600009073000829550008F8B51C4B07461E6822
:10561000B36913B93046FFF7C7FF4836B4687368FB
:10562000013B03D5336833B13668F7E7B4F90C5062
:105630006DB16834F4E704213846FFF79FFF30600E
:105640000028F1D10C2304463B602046F8BD4FF6FC
:10565000FF73E38101236566A3812560A560656012
:1056600025616561A5610822294604F15C0000F00E
:1056700072F86563A563A564E564E6E790730008C6
:105680002DE9F84380468946002600F1480414B904
:105690003046BDE8F883A5686768013F01D52468F6
:1056A000F5E7AB89012B07D9B5F90E30013303D0EB
:1056B00029464046C84706436835EEE770B50025E1
:1056C0000C4E0D4CA41BA410A54209D100F0DCFF28
:1056D00000250A4E0A4CA41BA410A54205D170BD9A
:1056E00056F8253098470135EEE756F825309847AB
:1056F0000135F2E760010020600100206001002018
:105700006C010020024B0146186800F0CDBE00BFBE
:10571000FC000020024B0146186800F0C9BE00BF23
:10572000FC00002010B5C9B202449042034601D1EA
:10573000002010BD1C7801308C42F6D1184610BDF7
:1057400010B5431E0A44914200D110BD11F8014B1F
:1057500003F8014FF7E703460244934200D1704734
:1057600003F8011BF9E710B50C46B1F90E1000F073
:105770007BFB0028ABBF636DA3891B1823F4805308
:10578000ACBF6365A38110BD2DE9F0411F468B8935
:105790000546DB050C46164605D502230022B1F965
:1057A0000E1000F067F8A389324623F48053A381DA
:1057B000B4F90E103B462846BDE8F04100F038B879
:1057C00010B50C46B1F90E1000F054F8431CA38933
:1057D00015BF606523F4805343F48053A38118BF41
:1057E000A38110BDB1F90E1000F034B810B59AB015
:1057F000009104916FF00041029105914FF6FF7105
:105800004FF40274ADF80E106946ADF80C4000F08C
:105810009FF80022009B1A701AB010BD13460A466A
:10582000014602480068FFF7E1BF00BFFC0000200E
:1058300038B50546084611460022054C22601A4636
:10584000FCF7ECFF431C02D1236803B12B6038BD89
:10585000A413002038B50023054C054608462360F4
:10586000FCF7C6FF431C02D1236803B12B6038BD8F
:10587000A413002038B50546084611460022054C01
:1058800022601A46FDF714F8431C02D1236803B1C5
:105890002B6038BDA41300202DE9F0478E688246A6
:1058A0009E420C469146984635D88A8912F4906FEC
:1058B00031D00223256809696F1A656905EB450532
:1058C00095FBF3F508F101033B449D4238BF1D46AB
:1058D000530531D5294600F0E7FD064650B90C23A3
:1058E000CAF80030A3894FF0FF3043F04003A38192
:1058F000BDE8F0873A462169FFF722FFA38923F428
:10590000906343F08003A38126613E4426604646AF
:105910006561ED1BA560464528BF464649463246AF
:10592000206800F0B3FAA36800209B1BA3602368E3
:105930001E442660BDE8F0872A4600F0B7FD064603
:105940000028E1D12169504600F0B2FDC7E7000010
:105950002DE9F04F9DB003938B8980461C060D46C0
:1059600016460FD50B696BB9402100F09DFD2860EC
:10597000286128B90C23C8F800304FF0FF30C4E08C
:1059800040236B610023099320238DF829303023B5
:105990004FF0010B8DF82A3037463C4614F8013B96
:1059A000002B3CD1B7EB060A0BD0534632462946B2
:1059B0004046FFF771FF013000F0A280099B53447D
:1059C00009933B78002B00F09B8000234FF0FF32BF
:1059D00004930793059206938DF853301A9305228A
:1059E00021785048FFF79EFE671C049BD8B9D90662
:1059F00044BF20228DF853201A0744BF2B228DF874
:105A0000532022782A2A16D000210A20079A2746F6
:105A10003B780134303B092B50D9C9B111E0252B1B
:105A2000C0D02746B9E73F4A3C46801A0BFA00F03F
:105A300018430490D3E7039A111D12680391002ABA
:105A400001DB079204E0524243F002030792049301
:105A50003B782E2B0DD17B78791C2A2B32D1039BDE
:105A600002371A1D1B680392002BB8BF4FF0FF339B
:105A700005932D4C032239782046FFF753FE38B1A9
:105A80004023001B03FA00F0049B013703430493F7
:105A90003978062225487E1C8DF82810FFF742FE33
:105AA000002835D0224BFBB9039B073323F00703B3
:105AB00008330393099B4B4409936DE700FB0232C3
:105AC0000121A4E700230A24184605930F463A78DB
:105AD0000131303A092A03D9002BCAD00590C8E712
